:020000040000FA
:0400000007EF00F016
:0A0008001B822EED06F088EF06F0D3
:100800000054696D657220303A202020202020207D
:10081000200020202053454E4149202031313820EE
:10082000202000009590030E936E000E026E010EC4
:10083000016E16C003F017C004F04FEC06F004EC94
:1008400006F08380010E046E010E9CEC05F0120E82
:10085000046E080E056E6DEC06F0010E046E020EBD
:100860009CEC05F0010E046E080E056E6DEC06F0B2
:100870001A04D8A43EEF04F040EF04F038EF04F07F
:1008800083B045EF04F048EF04F0010E49EF04F0A7
:10089000000EFF0A0F6E83500F18FE0B0F18836EA9
:1008A0000A0E046E020E9CEC05F0000E046E640E3F
:1008B000036E18C001F019C002F099EC04F001C0F9
:1008C00009F002C00AF0000E0C6E0A0E0B6EFBEC73
:1008D00004F00950300FD5EC05F0000E046E0A0E3E
:1008E000036E18C001F019C002F099EC04F001C0C9
:1008F00009F002C00AF0000E0C6E0A0E0B6EFBEC43
:1009000004F00950300FD5EC05F018C009F019C0FB
:100910000AF0000E0C6E0A0E0B6EFBEC04F0095090
:10092000300FD5EC05F0000E1A6E38EF04F007EF2B
:1009300000F0000E066E04BEA2EF04F0A0EF04F07B
:10094000A8EF04F0036C041ED8B0042A010E066E52
:1009500002BEAFEF04F0ADEF04F0B5EF04F0016CB0
:10096000021ED8B0022A010E061A000E086E000EF2
:10097000076E03500410D8B4C0EF04F0C2EF04F0C7
:10098000EAEF04F0010E056ECAEF04F0D8900336CA
:100990000436052A04AECFEF04F0D1EF04F0C6EF21
:1009A00004F0D890073608360350015C0450025812
:1009B000D8A0DDEF04F0DFEF04F0E4EF04F0035023
:1009C000015E0450025A0780D89004320332052E8B
:1009D000D1EF04F00650D8B4F0EF04F0F2EF04F0D9
:1009E000F6EF04F0076C081ED8B0082A07C001F023
:1009F00008C002F01200000E0E6E0ABE04EF05F0F1
:100A000002EF05F00AEF05F0096C0A1ED8B00A2AB9
:100A1000010E0E6E0CBE11EF05F00FEF05F015EF95
:100A200005F00B6C0C1ED8B00C2A0B500C10D8B46F
:100A30001CEF05F01EEF05F042EF05F0010E0D6E04
:100A400026EF05F0D8900B360C360D2A0CAE2BEFA6
:100A500005F02DEF05F022EF05F00B50095C0C506E
:100A60000A58D8A036EF05F038EF05F03CEF05F056
:100A70000B50095E0C500A5AD8900C320B320D2ED6
:100A80002DEF05F00E50D8B448EF05F04AEF05F011
:100A90004EEF05F0096C0A1ED8B00A2A09C009F009
:100AA0000AC00AF01200036E000E026E0250D8B4A3
:100AB0005CEF05F05EEF05F069EF05F003C001F0B3
:100AC000013AF00E011681500F0B0110816E6DEF8F
:100AD00005F081500F0B0310816E81948186100EFA
:100AE000E82EFED700D08196022A010E02647BEF29
:100AF00005F07DEF05F056EF05F00304D8B483EF61
:100B000005F085EF05F08EEF05F0020E0318D8A46E
:100B10008CEF05F08EEF05F097EF05F0030E016EF8
:100B2000980EE82EFED7012EFCD79BEF05F0100E95
:100B3000E82EFED700D01200076E0406B4EF05F0D1
:100B40000450800F086ED1EF05F00450C00F086EFE
:100B5000D1EF05F00450940F086ED1EF05F004506A
:100B6000D40F086ED1EF05F00750056E066A0650E7
:100B7000000AD8B4BEEF05F0D1EF05F00550010A28
:100B8000D8B4A0EF05F0030AD8B4A5EF05F0010A28
:100B9000D8B4AAEF05F0070AD8B4AFEF05F0D1EF4B
:100BA00005F0085053EC05F01200026E000E036EC3
:100BB0000350D8B4DEEF05F0E0EF05F0EBEF05F001
:100BC00002C001F0013AF00E011681500F0B011026
:100BD000816EEFEF05F081500F0B0210816E818462
:100BE0008186100EE82EFED700D08196032A010ED2
:100BF0000364FDEF05F0FFEF05F0D8EF05F0100EF0
:100C0000E82EFED700D0120020EE10F010EE05F016
:100C1000050EDBCFE3FFE806FCE281500F0B816E8F
:100C200081948196140E046E7A0EE82EFED7042E5F
:100C3000FCD7000E0B6E050E0B24D96EDA6A000E7F
:100C4000DA22DF5053EC05F00B2A050E0B642BEF74
:100C500006F02DEF06F01BEF06F012000600F2A4DE
:100C600034EF06F036EF06F04DEF06F0F294175031
:100C7000D76E16C0D6FF184A192A640E1818191014
:100C8000D8A445EF06F047EF06F04BEF06F0000E54
:100C9000196E000E186E010E1A6E1B9211000104DF
:100CA0000210D8A456EF06F058EF06F05CEF06F0FD
:100CB000200EF26EF184D08E850ED56E0450D76E64
:100CC00003C0D6FF01040210D8A469EF06F06BEF51
:100CD00006F06CEF06F0F28E120079EF06F004C019
:100CE000F6FF05C0F7FF0800F550D5EC05F0044A03
:100CF000052A04C0F6FF05C0F7FF0800F5500009FB
:100D0000D8A485EF06F087EF06F06FEF06F012002B
:100D1000440EF66E0D0EF76E000EF86E00EE10F03B
:100D200010EE08F00900F5CFEEFFE550E150FAE1D2
:100D30001A6A196A186A1B901B92000EF86E00015D
:0C0D400012EF04F03332280C0601F7C259
:020000040020DA
:08000000FFFFFFFFFFFFFFFF00
:020000040030CA
:0E000000000C0000FF8181FF0FC00FE00F40D9
:00000001FF
