:020000040000FA
:0400000007EF00F016
:0A0008001D82BAED05F0ABEF06F023
:1008000000486F726172696F3A20202020202020FA
:10081000200020202053454E4149202031313820EE
:1008200020200000030E936E000E026E010E016E7A
:1008300015C003F016C004F08DEC06F063EC06F072
:10084000010E046E010EFBEC05F0120E046E080E94
:10085000056EC8EC06F0010E046E020EFBEC05F00E
:10086000010E046E080E056EC8EC06F0090E046E4B
:10087000020EFBEC05F0000E046E0A0E036E17C0AC
:1008800001F018C002F0B7EC04F001C009F002C09A
:100890000AF0000E0C6E0A0E0B6E19EC05F00950F2
:1008A000300F34EC06F017C009F018C00AF0000E43
:1008B0000C6E0A0E0B6E19EC05F00950300F34EC7B
:1008C00006F03A0E34EC06F0000E046E0A0E036ECB
:1008D00019C001F01AC002F0B7EC04F001C009F031
:1008E00002C00AF0000E0C6E0A0E0B6E19EC05F039
:1008F0000950300F34EC06F019C009F01AC00AF0A4
:10090000000E0C6E0A0E0B6E19EC05F00950300F3C
:1009100034EC06F03A0E34EC06F0000E046E0A0ECB
:10092000036E1BC001F01CC002F0B7EC04F001C064
:1009300009F002C00AF0000E0C6E0A0E0B6E19ECE4
:1009400005F00950300F34EC06F01BC009F01CC054
:100950000AF0000E0C6E0A0E0B6E19EC05F0095031
:10096000300F34EC06F036EF04F007EF00F0000E25
:10097000066E04BEC0EF04F0BEEF04F0C6EF04F054
:10098000036C041ED8B0042A010E066E02BECDEF21
:1009900004F0CBEF04F0D3EF04F0016C021ED8B0EA
:1009A000022A010E061A000E086E000E076E035092
:1009B0000410D8B4DEEF04F0E0EF04F008EF05F027
:1009C000010E056EE8EF04F0D89003360436052AD0
:1009D00004AEEDEF04F0EFEF04F0E4EF04F0D89094
:1009E000073608360350015C04500258D8A0FBEFCC
:1009F00004F0FDEF04F002EF05F00350015E045037
:100A0000025A0780D89004320332052EEFEF04F02B
:100A10000650D8B40EEF05F010EF05F014EF05F016
:100A2000076C081ED8B0082A07C001F008C002F001
:100A30001200000E0E6E0ABE22EF05F020EF05F048
:100A400028EF05F0096C0A1ED8B00A2A010E0E6EB6
:100A50000CBE2FEF05F02DEF05F033EF05F00B6C1A
:100A60000C1ED8B00C2A0B500C10D8B43AEF05F07D
:100A70003CEF05F060EF05F0010E0D6E44EF05F060
:100A8000D8900B360C360D2A0CAE49EF05F04BEF23
:100A900005F040EF05F00B50095C0C500A58D8A047
:100AA00054EF05F056EF05F05AEF05F00B50095ED4
:100AB0000C500A5AD8900C320B320D2E4BEF05F029
:100AC0000E50D8B466EF05F068EF05F06CEF05F056
:100AD000096C0A1ED8B00A2A09C009F00AC00AF037
:100AE0001200036E000E026E0250D8B47AEF05F0C9
:100AF0007CEF05F087EF05F003C001F0013AF00E3E
:100B0000011681500F0B0110816E8BEF05F08150A3
:100B10000F0B0310816E81948186100EE82EFED794
:100B200000D08196022A010E026499EF05F09BEF36
:100B300005F074EF05F00304D8B4A1EF05F0A3EFBE
:100B400005F0ACEF05F0020E0318D8A4AAEF05F0EB
:100B5000ACEF05F0B5EF05F0030E016E980EE82E30
:100B6000FED7012EFCD7B9EF05F0100EE82EFED708
:100B700000D012000600F2A4C0EF05F0C2EF05F0AD
:100B8000F9EF05F0F2941650D76E15C0D6FF1B4A48
:100B90001C2A3C0E1B181C10D8A4D1EF05F0D3EF73
:100BA00005F0F9EF05F0000E1C6E000E1B6E194AE1
:100BB0001A2A3C0E19181A10D8A4E1EF05F0E3EF39
:100BC00005F0F9EF05F0000E1A6E000E196E174AC7
:100BD000182A180E17181810D8A4F1EF05F0F3EF23
:100BE00005F0F9EF05F0000E186E000E176EF9EF24
:100BF00005F01D921100076E040613EF06F0045075
:100C0000800F086E30EF06F00450C00F086E30EF12
:100C100006F00450940F086E30EF06F00450D40F25
:100C2000086E30EF06F00750056E066A0650000A9F
:100C3000D8B41DEF06F030EF06F00550010AD8B425
:100C4000FFEF05F0030AD8B404EF06F0010AD8B4A8
:100C500009EF06F0070AD8B40EEF06F030EF06F001
:100C6000085071EC05F01200026E000E036E035086
:100C7000D8B43DEF06F03FEF06F04AEF06F002C0B1
:100C800001F0013AF00E011681500F0B0110816E38
:100C90004EEF06F081500F0B0210816E8184818629
:100CA000100EE82EFED700D08196032A010E0364B1
:100CB0005CEF06F05EEF06F037EF06F0100EE82E60
:100CC000FED700D0120020EE0FF010EE05F0050E5A
:100CD000DBCFE3FFE806FCE281500F0B816E8194CD
:100CE0008196140E046E7A0EE82EFED7042EFCD7E1
:100CF000000E0B6E050E0B24D96EDA6A000EDA2296
:100D0000DF5071EC05F00B2A050E0B648AEF06F03C
:100D10008CEF06F07AEF06F0120001040210D8A45E
:100D200094EF06F096EF06F09AEF06F0200EF26EC2
:100D3000F184D08E850ED56E0450D76E03C0D6FFD9
:100D400001040210D8A4A7EF06F0A9EF06F0AAEF5D
:100D500006F0F28E1200C60EF66E0D0EF76E000E45
:100D6000F86E00EE0FF010EE08F00900F5CFEEFF80
:100D7000E550E150FAE11C6A1B6A1A6A196A186A9E
:100D8000176A1D901D92000EF86E000112EF04F01C
:100D9000D4EF06F004C0F6FF05C0F7FF0800F550D9
:100DA00034EC06F0044A052A04C0F6FF05C0F7FF3C
:100DB0000800F5500009D8A4E0EF06F0E2EF06F0D5
:0E0DC000CAEF06F012003332280C0601F7C20B
:020000040020DA
:08000000FFFFFFFFFFFFFFFF00
:020000040030CA
:0E000000000C0000FF8181FF0FC00FE00F40D9
:00000001FF
